:020000040800F2
:1000000000000220150F0008670F0008730F00089A
:10001000790F00087F0F0008850F0008000000001E
:100020000000000000000000000000008B0F00082E
:10003000970F000800000000A30F0008AF0F000892
:10004000650F0008650F0008650F0008650F0008C0
:10005000650F0008650F0008D50A0008650F000845
:10006000650F0008650F0008650F0008650F0008A0
:10007000650F0008650F0008650F0008650F000890
:10008000650F0008650F0008650F0008650F000880
:10009000650F0008650F0008650F0008650F000870
:1000A000650F0008650F0008650F0008650F000860
:1000B000550E0008650F0008650F0008650F000861
:1000C000650F0008650F0008650F0008650F000840
:1000D000650F0008650F0008650F0008650F000830
:1000E000650F0008650F0008650F0008650F000820
:1000F000650F0008650F0008650F0008650F000810
:10010000650F0008650F0008650F0008650F0008FF
:10011000650F0008650F0008650F0008650F0008EF
:10012000650F0008650F0008650F0008650F0008DF
:10013000650F0008650F0008650F0008650F0008CF
:10014000650F0008650F0008650F0008650F0008BF
:10015000650F0008650F0008650F0008650F0008AF
:10016000650F0008650F0008650F0008650F00089F
:10017000650F0008650F0008650F0008650F00088F
:08018000650F0008650F00087F
:1001880010B5054C237833B9044B13B10448AFF3C9
:1001980000800123237010BD08000020000000002B
:1001A8005411000808B5034B1BB103490348AFF3CA
:1001B800008008BD000000000C0000205411000859
:1001C80080B485B000AF78600023FB730023BB7355
:1001D8000F237B737B68DB78002B39D0274BDB68D8
:1001E800DB431B0ADBB203F00703FB73FB7BC3F1A2
:1001F8000403BB737A7BFB7B42FA03F37B737B6854
:100208005B781A46BB7B02FA03F3FB737B689A7828
:100218007B7B1340DAB2FB7B1343FB73FB7B1B0135
:10022800FB73174A7B681B781344FA7B83F8002317
:10023800134A7B681B785B09DBB218467B681B781E
:1002480003F01F03012101FA03F342F820300FE005
:100258000B497B681B785B09DBB218467B681B7807
:1002680003F01F0301229A4000F1200341F82320E4
:1002780000BF1437BD4680BC704700BF00ED00E0EA
:1002880000E100E080B485B000AF78600023FB6037
:10029800344BFB607B689B79002B4FD03149314B45
:1002A8001A687B681B68DB4313400B602D492D4B94
:1002B8005A687B681B68DB4313404B607B681B797B
:1002C8001A46FB681344FB60FB68FA6811687A6891
:1002D80012680A431A602349224B9A687B681B6894
:1002E800DB4313408B601F491E4BDA687B681B6831
:1002F800DB431340CB607B685B79102B0ED1194927
:10030800184B9A687B681B6813438B601549154B1B
:10031800DA687B681B681343CB601DE0114BFB60F8
:100328007B685B791A46FB681344FB60FB68FA68D4
:1003380011687A6812680A431A600DE07B681B79B5
:100348001A46FB681344FB60FB68FA6811687A6810
:100358001268D2430A401A6000BF1437BD4680BCF9
:10036800704700BF003C014080B485B000AF7860A2
:100378000023FB730023BB600C4B1A687B68134097
:10038800BB600A4B5A697B681340002B05D0BB68D9
:10039800002B02D00123FB7301E00023FB73FB7BDE
:1003A80018461437BD4680BC704700BF003C01406A
:1003B80080B483B000AF7860034A7B68536100BFA4
:1003C8000C37BD4680BC7047003C014080B487B004
:1003D80000AF7860396000237B6100233B61002314
:1003E800FB6000237B6176E001227B6902FA03F35C
:1003F8003B613B681A683B691340FB60FA683B69DC
:100408009A4265D17B681A687B695B00032101FA0F
:1004180003F3DB431A407B681A607B681A683B6801
:100428001B7919467B695B0001FA03F31A437B6861
:100438001A603B681B79012B03D03B681B79022BA0
:100448002ED17B689A687B695B00032101FA03F36C
:10045800DB431A407B689A607B689A683B685B79E3
:1004680019467B695B0001FA03F31A437B689A60BB
:100478007B685A687B699BB2194601238B40DB4332
:100488001A407B685A607B685B683A6892791146C3
:100498007A6992B201FA02F292B21A437B685A6000
:1004A8007B68DA687B699BB25B00032101FA03F37E
:1004B800DB431A407B68DA607B68DA683B68DB7983
:1004C80019467B695B0001FA03F31A437B68DA601B
:1004D8007B6901337B617B690F2B85D900BF1C3792
:1004E800BD4680BC704780B485B000AF78600B46CD
:1004F8007B800023FB737B685A697B881340002B41
:1005080002D00123FB7301E00023FB73FB7B184639
:100518001437BD4680BC704780B483B000AF7860A4
:100528000B467B807B687A881A8300BF0C37BD46F0
:1005380080BC704780B483B000AF78600B467B8086
:100548007B687A885A8300BF0C37BD4680BC7047E9
:1005580080B483B000AF78600B46FB70FB78002B4B
:1005680006D00949084B1A6B7B6813430B6306E0F6
:100578000549054B1A6B7B68DB4313400B6300BFCF
:100588000C37BD4680BC70470038024080B483B049
:1005980000AF78600B46FB70FB78002B06D009494A
:1005A800084B1A6C7B6813430B6406E00549054B3E
:1005B8001A6C7B68DB4313400B6400BF0C37BD46E5
:1005C80080BC70470038024080B483B000AF7860C8
:1005D8000B46FB70FB78002B06D00949084B5A6C78
:1005E8007B6813434B6406E00549054B5A6C7B68EE
:1005F800DB4313404B6400BF0C37BD4680BC7047DB
:100608000038024080B483B000AF78600B46FB70BE
:10061800FB78002B06D00949084B1A6A7B681343FC
:100628000B6206E00549054B1A6A7B68DB431340F9
:100638000B6200BF0C37BD4680BC704700380240D3
:1006480080B483B000AF78600B46FB70FB78002B5A
:1006580006D00949084B5A6A7B6813434B6206E087
:100668000549054B5A6A7B68DB4313404B6200BF60
:100678000C37BD4680BC70470038024090B484B047
:1006880000AF03460A46FB711346BB710023FB60AB
:10069800BB7903F003039B000F2202FA03F3FB600C
:1006A8001649BB799B08DBB21846144ABB799B08EC
:1006B800DBB2023352F82320FB68DB431A40831C69
:1006C80041F823200D48BB799B08DBB21C460B4A36
:1006D800BB799B08DBB2023352F82320F979BB7946
:1006E80003F003039B0001FA03F31A43A31C40F829
:1006F800232000BF1037BD4690BC7047003801402A
:1007080080B582B000AF78607B68604A934208D1B8
:1007180001210120FFF794FF00210120FFF790FF3E
:10072800AFE07B68B3F1804F08D101210120FFF7CA
:1007380069FF00210120FFF765FFA2E07B68544AAA
:10074800934208D101210220FFF75CFF002102201B
:10075800FFF758FF95E07B684E4A934208D1012184
:100768000420FFF74FFF00210420FFF74BFF88E02C
:100778007B68494A934208D101210820FFF742FFCC
:1007880000210820FFF73EFF7BE07B68434A934245
:1007980008D101211020FFF735FF00211020FFF7B5
:1007A80031FF6EE07B683E4A934208D10121202048
:1007B800FFF728FF00212020FFF724FF61E07B6876
:1007C800384A934208D101210220FFF739FF00215E
:1007D8000220FFF735FF54E07B68334A93420AD181
:1007E80001214FF48030FFF72BFF00214FF48030B8
:1007F800FFF726FF45E07B682C4A93420AD1012186
:100808004FF40030FFF71CFF00214FF40030FFF7D2
:1008180017FF36E07B68264A93420AD101214FF43C
:100828008020FFF70DFF00214FF48020FFF708FF1D
:1008380027E07B681F4A934208D101214020FFF737
:10084800E1FE00214020FFF7DDFE1AE07B681A4A2E
:10085800934208D101218020FFF7D4FE0021802097
:10086800FFF7D0FE0DE07B68144A934209D10121BD
:100878004FF48070FFF7C6FE00214FF48070FFF739
:10088800C1FE00BF0837BD4680BD00BF0000014063
:100898000004004000080040000C00400010004028
:1008A80000140040000401400040014000440140A1
:1008B8000048014000180040001C00400020004093
:1008C80080B485B000AF786039600023FB817B6815
:1008D8001B88FB817B68284A934213D07B68274A90
:1008E80093420FD07B68B3F1804F0BD07B68244ACA
:1008F800934207D07B68234A934203D07B68224AFD
:10090800934208D1FB8923F07003FB813B685A8826
:10091800FB891343FB817B681C4A93420CD07B689C
:100928001B4A934208D0FB8923F44073FB813B6840
:100938001A89FB891343FB817B68FA891A803B6813
:100948005A687B68DA623B681A887B681A857B6814
:10095800094A934203D07B68084A934204D13B6812
:100968009B7A9AB27B681A867B6801229A8200BFBA
:100978001437BD4680BC70470000014000040140A8
:100988000004004000080040000C00400010004037
:100998000014004080B483B000AF78600B46FB7051
:1009A800FB78002B08D07B681B889BB243F00103BF
:1009B8009AB27B681A8007E07B681B889BB223F099
:1009C80001039AB27B681A8000BF0C37BD4680BC11
:1009D800704780B483B000AF78600B467B801346C5
:1009E8007B707B78002B08D07B689B899AB27B88C8
:1009F80013439AB27B689A8109E07B689B899AB213
:100A08007B88DB439BB213409AB27B689A8100BF14
:100A18000C37BD4680BC704780B485B000AF7860A5
:100A28000B467B800023FB730023BB8100237B8163
:100A38007B681B8A9AB27B881340BB817B689B8941
:100A48009AB27B8813407B81BB89002B05D07B89B8
:100A5800002B02D00123FB7301E00023FB73FB7B17
:100A680018461437BD4680BC704780B483B000AFC9
:100A780078600B467B807B88DB439AB27B681A825E
:100A880000BF0C37BD4680BC7047000080B400AF83
:100A9800024B1B781846BD4680BC704724000020D6
:100AA80080B582B000AF01210120FFF751FD01237D
:100AB8003B6000233B713B4619460348FFF786FC21
:100AC80000BF0837BD4680BD0000024080B500AFBA
:100AD8000120FFF749FC0346002B13D00A4B1B7873
:100AE800002B06D0094B01221A70074B00221A70FE
:100AF80005E0064B00221A70034B01221A700120F0
:100B0800FFF756FC00BF80BD000000202400002035
:100B180080B584B000AF01214FF48040FFF754FD49
:100B280000210020FFF7AAFD0123BB600123BB734E
:100B380000233B7308237B7307F108031846FFF76C
:100B4800A1FB06233B710123FB7100237B7100236A
:100B5800BB713B1D1846FFF733FB00BF1037BD467E
:100B680080BD80B582B000AF00237B6000F02CF818
:100B7800FFF796FF00F0B6F9FFF7CAFFFFF786FF09
:100B88000346002B0FD07B68012B09D000F052F9E7
:100B98004AF210414FF4C87000F078F901237B60E5
:100BA80000F030F8EAE77B68022B09D000F042F940
:100BB8004AF210414FF47A7000F068F902237B6022
:100BC80000F0ACF8DAE7000080B582B000AF012190
:100BD8000820FFF7BDFC4FF470433B6001233B71D5
:100BE80003237B710023BB710023FB713B4619462D
:100BF8000348FFF7EBFB00BF0837BD4680BD00BFC9
:100C0800000C024080B500AF424B1B68013B032B30
:100C18007DD801A252F823F0310C0008670C0008B7
:100C28009D0C0008D30C00084FF480513A48FFF798
:100C38005AFC0346002B04D04FF480513648FFF786
:100C480079FC4FF480413448FFF74DFC0346002BF4
:100C580056D14FF480413048FFF75EFC50E04FF426
:100C680080412D48FFF73FFC0346002B04D04FF48A
:100C780080412948FFF75EFC4FF400512648FFF7F2
:100C880032FC0346002B3DD14FF400512248FFF7B8
:100C980043FC37E04FF400511F48FFF724FC03469C
:100CA800002B04D04FF400511B48FFF743FC4FF4CE
:100CB80000411948FFF717FC0346002B24D14FF4D5
:100CC80000411548FFF728FC1EE04FF40041124888
:100CD800FFF709FC0346002B04D04FF400410E48EF
:100CE800FFF728FC4FF480510B48FFF7FCFB034645
:100CF800002B0BD14FF480510748FFF70DFC05E09E
:100D080000BF04E000BF02E000BF00E000BF00BF7A
:100D180080BD00BF04000020000C024080B500AF79
:100D2800424B1B68013B032B7DD801A252F823F0EC
:100D3800490D00087F0D0008B50D0008EB0D0008EF
:100D48004FF480413A48FFF7CEFB0346002B04D00E
:100D58004FF480413648FFF7EDFB4FF4805134489B
:100D6800FFF7C1FB0346002B56D14FF480513048A2
:100D7800FFF7D2FB50E04FF480512D48FFF7B3FB4B
:100D88000346002B04D04FF480512948FFF7D2FBCB
:100D98004FF400412648FFF7A6FB0346002B3DD140
:100DA8004FF400412248FFF7B7FB37E04FF400410A
:100DB8001F48FFF798FB0346002B04D04FF400416F
:100DC8001B48FFF7B7FB4FF400511948FFF78BFB9F
:100DD8000346002B24D14FF400511548FFF79CFB24
:100DE8001EE04FF400511248FFF77DFB0346002B2D
:100DF80004D04FF400510E48FFF79CFB4FF480419C
:100E08000B48FFF770FB0346002B0BD14FF48041D2
:100E18000748FFF781FB05E000BF04E000BF02E0E0
:100E280000BF00E000BF00BF80BD00BF040000207D
:100E3800000C024080B500AF4FF470410248FFF744
:100E480079FB00BF80BD00BF000C024080B500AF39
:100E580001214FF08040FFF7DFFD0346002B11D042
:100E680001214FF08040FFF700FE074B1B68042B61
:100E780005D0054B1B680133034A136002E0024B9F
:100E880001221A6000BF80BD0400002080B586B032
:100E980000AF786039604FF08040FFF731FC0121E6
:100EA8000120FFF773FB3B689BB2BB817B683B610A
:100EB8000023BB820023FB8107F10C0319464FF086
:100EC8008040FFF7FDFC012201214FF08040FFF731
:100ED80080FD01214FF08040FFF75CFD00BF18370F
:100EE800BD4680BD80B582B000AF1C233B71002396
:100EF8007B710123BB710123FB713B1D1846FFF772
:100F08005FF900BF0837BD4680BD0000DFF834D068
:100F1800002103E00C4B5B58435004310B480C4B49
:100F280042189A42F6D30B4A02E0002342F8043BE7
:100F3800094B9A42F9D300F03DF800F0E3F8FFF7C7
:100F480010FE704700000220741100080000002005
:100F5800080000200800002028000020FEE780B4D8
:100F680000AF00BFBD4680BC704780B400AFFEE74D
:100F780080B400AFFEE780B400AFFEE780B400AFF6
:100F8800FEE780B400AF00BFBD4680BC704780B4A8
:100F980000AF00BFBD4680BC704780B400AF00BF43
:100FA800BD4680BC704780B400AF00BFBD4680BC62
:100FB8007047000080B500AF124A124B1B6843F01F
:100FC800010313600F4B00229A600E4A0D4B1B68F9
:100FD80023F0847323F4803313600A4B0A4A5A605F
:100FE800084A084B1B6823F480231360054B002232
:100FF800DA6000F00DF8054B4FF000629A6000BF10
:1010080080BD00BF003802401030002400ED00E031
:1010180080B483B000AF00237B6000233B60354A77
:10102800344B1B6843F480331360324B1B6803F462
:1010380000333B607B6801337B603B68002B03D146
:101048007B68B3F5A06FF0D12A4B1B6803F400331B
:10105800002B02D001233B6001E000233B603B688A
:10106800012B42D1234A234B1B6C43F0805313645A
:10107800214A214B1B6843F4404313601D4A1D4B12
:101088009B6893601B4A1B4B9B6843F40043936027
:10109800184A184B9B6843F4A0539360154B174AA2
:1010A8005A60144A134B1B6843F08073136000BFE7
:1010B800104B1B6803F00073002BF9D0104B40F263
:1010C80005721A600B4A0B4B9B6823F0030393606D
:1010D800084A084B9B6843F00203936000BF054B26
:1010E8009B6803F00C03082BF9D100BF0C37BD46F1
:1010F80080BC704700380240007000401954400717
:10110800003C024070B50D4E0D4CA41BA4100025E8
:10111800A54209D10B4E0C4C00F018F8A41BA410E2
:101128000025A54205D170BD56F8253098470135F0
:10113800EEE756F8253098470135F2E76C110008BC
:101148006C1100086C11000870110008F8B500BF98
:10115800F8BC08BC9E467047F8B500BFF8BC08BC90
:041168009E467047E8
:04116C00AD010008C9
:0411700089010008E9
:08117400010000000100000071
:0400000508000F15CB
:00000001FF
